{
  "_format": "hh-sol-artifact-1",
  "contractName": "Guestbook",
  "sourceName": "contracts/GuestBook.sol",
  "abi": [
    {
      "anonymous": false,
      "inputs": [
        {
          "indexed": true,
          "internalType": "address",
          "name": "sender",
          "type": "address"
        },
        {
          "indexed": false,
          "internalType": "string",
          "name": "name",
          "type": "string"
        },
        {
          "indexed": false,
          "internalType": "string",
          "name": "message",
          "type": "string"
        },
        {
          "indexed": false,
          "internalType": "uint256",
          "name": "timestamp",
          "type": "uint256"
        }
      ],
      "name": "NewEntry",
      "type": "event"
    },
    {
      "inputs": [
        {
          "internalType": "uint256",
          "name": "",
          "type": "uint256"
        }
      ],
      "name": "entries",
      "outputs": [
        {
          "internalType": "address",
          "name": "sender",
          "type": "address"
        },
        {
          "internalType": "string",
          "name": "name",
          "type": "string"
        },
        {
          "internalType": "string",
          "name": "message",
          "type": "string"
        },
        {
          "internalType": "uint256",
          "name": "timestamp",
          "type": "uint256"
        }
      ],
      "stateMutability": "view",
      "type": "function"
    },
    {
      "inputs": [],
      "name": "getAllEntries",
      "outputs": [
        {
          "components": [
            {
              "internalType": "address",
              "name": "sender",
              "type": "address"
            },
            {
              "internalType": "string",
              "name": "name",
              "type": "string"
            },
            {
              "internalType": "string",
              "name": "message",
              "type": "string"
            },
            {
              "internalType": "uint256",
              "name": "timestamp",
              "type": "uint256"
            }
          ],
          "internalType": "struct Guestbook.Entry[]",
          "name": "",
          "type": "tuple[]"
        }
      ],
      "stateMutability": "view",
      "type": "function"
    },
    {
      "inputs": [
        {
          "internalType": "string",
          "name": "_name",
          "type": "string"
        },
        {
          "internalType": "string",
          "name": "_message",
          "type": "string"
        }
      ],
      "name": "sign",
      "outputs": [],
      "stateMutability": "nonpayable",
      "type": "function"
    }
  ],
  "bytecode": "0x6080604052348015600f57600080fd5b50610f0b8061001f6000396000f3fe608060405234801561001057600080fd5b50600436106100415760003560e01c80634a0364e814610046578063b30906d414610064578063e601dd1214610097575b600080fd5b61004e6100b3565b60405161005b91906107e3565b60405180910390f35b61007e60048036038101906100799190610845565b610296565b60405161008e94939291906108da565b60405180910390f35b6100b160048036038101906100ac9190610a62565b610406565b005b60606000805480602002602001604051908101604052809291908181526020016000905b8282101561028d57838290600052602060002090600402016040518060800160405290816000820160009054906101000a900473ffffffffffffffffffffffffffffffffffffffff1673ffffffffffffffffffffffffffffffffffffffff1673ffffffffffffffffffffffffffffffffffffffff16815260200160018201805461016090610b09565b80601f016020809104026020016040519081016040528092919081815260200182805461018c90610b09565b80156101d95780601f106101ae576101008083540402835291602001916101d9565b820191906000526020600020905b8154815290600101906020018083116101bc57829003601f168201915b505050505081526020016002820180546101f290610b09565b80601f016020809104026020016040519081016040528092919081815260200182805461021e90610b09565b801561026b5780601f106102405761010080835404028352916020019161026b565b820191906000526020600020905b81548152906001019060200180831161024e57829003601f168201915b50505050508152602001600382015481525050815260200190600101906100d7565b50505050905090565b600081815481106102a657600080fd5b90600052602060002090600402016000915090508060000160009054906101000a900473ffffffffffffffffffffffffffffffffffffffff16908060010180546102ef90610b09565b80601f016020809104026020016040519081016040528092919081815260200182805461031b90610b09565b80156103685780601f1061033d57610100808354040283529160200191610368565b820191906000526020600020905b81548152906001019060200180831161034b57829003601f168201915b50505050509080600201805461037d90610b09565b80601f01602080910402602001604051908101604052809291908181526020018280546103a990610b09565b80156103f65780601f106103cb576101008083540402835291602001916103f6565b820191906000526020600020905b8154815290600101906020018083116103d957829003601f168201915b5050505050908060030154905084565b600081511161044a576040517f08c379a000000000000000000000000000000000000000000000000000000000815260040161044190610b86565b60405180910390fd5b61011881511115610490576040517f08c379a000000000000000000000000000000000000000000000000000000000815260040161048790610bf2565b60405180910390fd5b600060405180608001604052803373ffffffffffffffffffffffffffffffffffffffff168152602001848152602001838152602001428152509050600081908060018154018082558091505060019003906000526020600020906004020160009091909190915060008201518160000160006101000a81548173ffffffffffffffffffffffffffffffffffffffff021916908373ffffffffffffffffffffffffffffffffffffffff16021790555060208201518160010190816105539190610dbe565b5060408201518160020190816105699190610dbe565b506060820151816003015550503373ffffffffffffffffffffffffffffffffffffffff167f879dc8d4aad3b8e88fb6b846c66050c124f0a26596d4beb3dd43a5d71ed049fd8484426040516105c093929190610e90565b60405180910390a2505050565b600081519050919050565b600082825260208201905092915050565b6000819050602082019050919050565b600073ffffffffffffffffffffffffffffffffffffffff82169050919050565b6000610624826105f9565b9050919050565b61063481610619565b82525050565b600081519050919050565b600082825260208201905092915050565b60005b83811015610674578082015181840152602081019050610659565b60008484015250505050565b6000601f19601f8301169050919050565b600061069c8261063a565b6106a68185610645565b93506106b6818560208601610656565b6106bf81610680565b840191505092915050565b6000819050919050565b6106dd816106ca565b82525050565b60006080830160008301516106fb600086018261062b565b50602083015184820360208601526107138282610691565b9150506040830151848203604086015261072d8282610691565b915050606083015161074260608601826106d4565b508091505092915050565b600061075983836106e3565b905092915050565b6000602082019050919050565b6000610779826105cd565b61078381856105d8565b935083602082028501610795856105e9565b8060005b858110156107d157848403895281516107b2858261074d565b94506107bd83610761565b925060208a01995050600181019050610799565b50829750879550505050505092915050565b600060208201905081810360008301526107fd818461076e565b905092915050565b6000604051905090565b600080fd5b600080fd5b610822816106ca565b811461082d57600080fd5b50565b60008135905061083f81610819565b92915050565b60006020828403121561085b5761085a61080f565b5b600061086984828501610830565b91505092915050565b61087b81610619565b82525050565b600082825260208201905092915050565b600061089d8261063a565b6108a78185610881565b93506108b7818560208601610656565b6108c081610680565b840191505092915050565b6108d4816106ca565b82525050565b60006080820190506108ef6000830187610872565b81810360208301526109018186610892565b905081810360408301526109158185610892565b905061092460608301846108cb565b95945050505050565b600080fd5b600080fd5b7f4e487b7100000000000000000000000000000000000000000000000000000000600052604160045260246000fd5b61096f82610680565b810181811067ffffffffffffffff8211171561098e5761098d610937565b5b80604052505050565b60006109a1610805565b90506109ad8282610966565b919050565b600067ffffffffffffffff8211156109cd576109cc610937565b5b6109d682610680565b9050602081019050919050565b82818337600083830152505050565b6000610a05610a00846109b2565b610997565b905082815260208101848484011115610a2157610a20610932565b5b610a2c8482856109e3565b509392505050565b600082601f830112610a4957610a4861092d565b5b8135610a598482602086016109f2565b91505092915050565b60008060408385031215610a7957610a7861080f565b5b600083013567ffffffffffffffff811115610a9757610a96610814565b5b610aa385828601610a34565b925050602083013567ffffffffffffffff811115610ac457610ac3610814565b5b610ad085828601610a34565b9150509250929050565b7f4e487b7100000000000000000000000000000000000000000000000000000000600052602260045260246000fd5b60006002820490506001821680610b2157607f821691505b602082108103610b3457610b33610ada565b5b50919050565b7f4d6573736167652063616e6e6f7420626520656d707479000000000000000000600082015250565b6000610b70601783610881565b9150610b7b82610b3a565b602082019050919050565b60006020820190508181036000830152610b9f81610b63565b9050919050565b7f4d65737361676520746f6f206c6f6e6700000000000000000000000000000000600082015250565b6000610bdc601083610881565b9150610be782610ba6565b602082019050919050565b60006020820190508181036000830152610c0b81610bcf565b9050919050565b60008190508160005260206000209050919050565b60006020601f8301049050919050565b600082821b905092915050565b600060088302610c747fffffffffffffffffffffffffffffffffffffffffffffffffffffffffffffffff82610c37565b610c7e8683610c37565b95508019841693508086168417925050509392505050565b6000819050919050565b6000610cbb610cb6610cb1846106ca565b610c96565b6106ca565b9050919050565b6000819050919050565b610cd583610ca0565b610ce9610ce182610cc2565b848454610c44565b825550505050565b600090565b610cfe610cf1565b610d09818484610ccc565b505050565b5b81811015610d2d57610d22600082610cf6565b600181019050610d0f565b5050565b601f821115610d7257610d4381610c12565b610d4c84610c27565b81016020851015610d5b578190505b610d6f610d6785610c27565b830182610d0e565b50505b505050565b600082821c905092915050565b6000610d9560001984600802610d77565b1980831691505092915050565b6000610dae8383610d84565b9150826002028217905092915050565b610dc78261063a565b67ffffffffffffffff811115610de057610ddf610937565b5b610dea8254610b09565b610df5828285610d31565b600060209050601f831160018114610e285760008415610e16578287015190505b610e208582610da2565b865550610e88565b601f198416610e3686610c12565b60005b82811015610e5e57848901518255600182019150602085019450602081019050610e39565b86831015610e7b5784890151610e77601f891682610d84565b8355505b6001600288020188555050505b505050505050565b60006060820190508181036000830152610eaa8186610892565b90508181036020830152610ebe8185610892565b9050610ecd60408301846108cb565b94935050505056fea264697066735822122099f832615624fe1b8be3b354186cc5b564310e06328e95d61121e37edb85429464736f6c634300081c0033",
  "linkReferences": {},
  "deployedLinkReferences": {}
}